:100000000C9434000C9446000C9446000C9446006A
:100010000C9446000C9446000C9446000C94460048
:100020000C9446000C9446000C9446000C94460038
:100030000C9446000C9446000C9446000C94460028
:100040000C9446000C9446000C9446000C94460018
:100050000C9446000C9446000C9446000C94460008
:100060000C9482000C94460011241FBECFEFD8E000
:10007000DEBFCDBF13E0A0E0B1E001C01D92A23011
:10008000B107E1F70E94DB000C9461010C940000C1
:1000900001979C0140E050E060E472E48FE090E062
:1000A0000E94FA00832F99278093C5002093C400F3
:1000B000E1ECF0E0808188698083E2ECF0E080810F
:1000C0008E60808308959091C00095FFFCCF80934F
:1000D000C6000895CF93DF93EC018991882319F02E
:1000E0000E946300FACFDF91CF9108958093BA0008
:1000F00085EC8093BC000895ECEBF0E080818B7B75
:10010000808308951F920F920FB60F9211248F9340
:100110009F93EF93FF938091B900887F803611F40D
:100120008FEF0BC08091B900887F803881F4809177
:10013000BB00909100019F3F19F48093000125C0FE
:10014000E0910001F0E0ED5FFD4F808315C08091EC
:10015000B900887F883B09F58091BB009091000130
:100160009F3F11F480930001E0910001F0E0EC5F0B
:10017000FE4F80818093BB00809100018F5F809350
:100180000001809100018F3F21F08091BC00856CBF
:1001900007C08091BC00856803C08091BC00856465
:1001A0008093BC00FF91EF919F918F910F900FBEB4
:1001B0000F901F90189580E091EE0E94480082E316
:1001C0000E9476007894809103024AE050E061E05A
:1001D00071E090E00E941C0181E091E00E946A00C1
:1001E0002FEF83ED90E3215080409040E1F700C075
:1001F0000000E9CFA1E21A2EAA1BBB1BFD010DC016
:10020000AA1FBB1FEE1FFF1FA217B307E407F507C6
:1002100020F0A21BB30BE40BF50B661F771F881FA2
:10022000991F1A9469F760957095809590959B0138
:10023000AC01BD01CF010895FB019F01E89442305C
:10024000C4F04532B4F44A3029F497FB1EF490957B
:1002500081959F4F642F77270E944D01805D8A33DF
:100260000CF0895D8193CB010097A1F716F45DE254
:1002700051931082C9010C943D01DC01FC01672FF0
:1002800071917723E1F7329704C07C916D9370836D
:100290006291AE17BF07C8F30895AA1BBB1B51E1BB
:1002A00007C0AA1FBB1FA617B70710F0A61BB70BE6
:1002B000881F991F5A95A9F780959095BC01CD018B
:0602C0000895F894FFCF41
:00000001FF
